{
  "_format": "hh-sol-artifact-1",
  "contractName": "Image",
  "sourceName": "contracts/Image.sol",
  "abi": [
    {
      "inputs": [
        {
          "internalType": "string",
          "name": "_hash",
          "type": "string"
        }
      ],
      "name": "addImage",
      "outputs": [],
      "stateMutability": "nonpayable",
      "type": "function"
    },
    {
      "inputs": [],
      "name": "getImages",
      "outputs": [
        {
          "components": [
            {
              "internalType": "address",
              "name": "owner",
              "type": "address"
            },
            {
              "internalType": "string",
              "name": "imgHash",
              "type": "string"
            }
          ],
          "internalType": "struct Image.SharedImage[]",
          "name": "",
          "type": "tuple[]"
        }
      ],
      "stateMutability": "view",
      "type": "function"
    }
  ],
  "bytecode": "0x608060405234801561001057600080fd5b5061071e806100206000396000f3fe608060405234801561001057600080fd5b50600436106100365760003560e01c8063114983341461003b578063166f177914610059575b600080fd5b610043610075565b60405161005091906104d5565b60405180910390f35b610073600480360381019061006e9190610386565b6101bc565b005b60606000805480602002602001604051908101604052809291908181526020016000905b828210156101b357838290600052602060002090600202016040518060400160405290816000820160009054906101000a900473ffffffffffffffffffffffffffffffffffffffff1673ffffffffffffffffffffffffffffffffffffffff1673ffffffffffffffffffffffffffffffffffffffff16815260200160018201805461012290610616565b80601f016020809104026020016040519081016040528092919081815260200182805461014e90610616565b801561019b5780601f106101705761010080835404028352916020019161019b565b820191906000526020600020905b81548152906001019060200180831161017e57829003601f168201915b50505050508152505081526020019060010190610099565b50505050905090565b600060405180604001604052803373ffffffffffffffffffffffffffffffffffffffff16815260200183815250908060018154018082558091505060019003906000526020600020906002020160009091909190915060008201518160000160006101000a81548173ffffffffffffffffffffffffffffffffffffffff021916908373ffffffffffffffffffffffffffffffffffffffff160217905550602082015181600101908051906020019061027592919061027b565b50505050565b82805461028790610616565b90600052602060002090601f0160209004810192826102a957600085556102f0565b82601f106102c257805160ff19168380011785556102f0565b828001600101855582156102f0579182015b828111156102ef5782518255916020019190600101906102d4565b5b5090506102fd9190610301565b5090565b5b8082111561031a576000816000905550600101610302565b5090565b600061033161032c8461051c565b6104f7565b90508281526020810184848401111561034957600080fd5b6103548482856105d4565b509392505050565b600082601f83011261036d57600080fd5b813561037d84826020860161031e565b91505092915050565b60006020828403121561039857600080fd5b600082013567ffffffffffffffff8111156103b257600080fd5b6103be8482850161035c565b91505092915050565b60006103d38383610498565b905092915050565b6103e4816105a2565b82525050565b60006103f58261055d565b6103ff8185610580565b9350836020820285016104118561054d565b8060005b8581101561044d578484038952815161042e85826103c7565b945061043983610573565b925060208a01995050600181019050610415565b50829750879550505050505092915050565b600061046a82610568565b6104748185610591565b93506104848185602086016105e3565b61048d816106d7565b840191505092915050565b60006040830160008301516104b060008601826103db565b50602083015184820360208601526104c8828261045f565b9150508091505092915050565b600060208201905081810360008301526104ef81846103ea565b905092915050565b6000610501610512565b905061050d8282610648565b919050565b6000604051905090565b600067ffffffffffffffff821115610537576105366106a8565b5b610540826106d7565b9050602081019050919050565b6000819050602082019050919050565b600081519050919050565b600081519050919050565b6000602082019050919050565b600082825260208201905092915050565b600082825260208201905092915050565b60006105ad826105b4565b9050919050565b600073ffffffffffffffffffffffffffffffffffffffff82169050919050565b82818337600083830152505050565b60005b838110156106015780820151818401526020810190506105e6565b83811115610610576000848401525b50505050565b6000600282049050600182168061062e57607f821691505b6020821081141561064257610641610679565b5b50919050565b610651826106d7565b810181811067ffffffffffffffff821117156106705761066f6106a8565b5b80604052505050565b7f4e487b7100000000000000000000000000000000000000000000000000000000600052602260045260246000fd5b7f4e487b7100000000000000000000000000000000000000000000000000000000600052604160045260246000fd5b6000601f19601f830116905091905056fea264697066735822122002738dcfc9c1cb1892530810ead0e3ef280b1b0b2857d25fa5554c4c401cc8ab64736f6c63430008040033",
  "linkReferences": {},
  "deployedLinkReferences": {}
}